:101100001201000200000040B40411460000010377
:1011100002010A060002000000400100090220004E
:10112000010100C000090400000208065000070584
:1011300002020002000705880200020009022000E6
:10114000010100C000090400000208065000070564
:101150000202400000070588024000000403090461
:101160001003430079007000720065007300730083
:101170001A03300030003000300030003000300002
:10118000300030003000300031003A034300790075
:101190007000720065007300730020004D00610054
:1011A000730073002000530074006F007200610030
:1011B00067006500200032002E0031003000200062
:0611C000200020000000E9
:071EC3007400C0E0C0E03232
:03000000021ECA13
:061ECA007581610211C6E2
:03004300021000A8
:04100000021A2D00A3
:0C100C00021EBA00021385000219080041
:1010E200E0F50FA3E0F50EA3E0F50DA3E0F50C2269
:0C10F20074142FF582E434E0F583E02252
:10130100C203200371121EAC7F847E03121A6EE4A5
:10131100F524121ED08F23E524C394C85018E52369
:1013210020E703B47F107F327E00121A6E121ED0A6
:101331008F23052480E1E52464C860C67F2A121D3D
:10134100C8BFEB0E7F28121DC8BF1406D203D209F5
:1013510080B07DFF7C007F3E121E0C7F22121DC8D3
:10136100EF547FFFBF0106D203C20980957FF47E4F
:1013710001121A6E808C7FF47E01121A6E300903FD
:03138100121B1F1D
:011384002246
:1004F1007DA07C007F2C121E0C121ED08F23E523C1
:1005010054C0FFBF40EAE4FDFC7F22121E0C0D7FA8
:1005110024121E0C7DFF7F26121E0C7F28121E0C3A
:10052100E4FD7F2A121E0C7DA07F2C121E0CE4FD1F
:100531007F1C121E0C3009097DA17F2E121E0C801A
:10054100097DEC7C007F2E121E0C1207EA121ED0D0
:100551008F23E52330E002C1B5E5235488FFBF08AE
:01056100ECAD
:1005620075240A7CE07D00D2057B007A027F20128E
:0D0572000C98EF4E7007AF241524EF70E6D3
:10057F00E4FFEF64012436F582E434E0F583E0FE16
:10058F0074B82FF582E4341FF583EEF00FBF18E235
:10059F0090E092E02430901FD1F090E094E024306E
:1005AF00901FD3F0901FB1C083C082E0FE90E00097
:1005BF00E05480FDEE4DD082D083F0200905901FCE
:1005CF00B3E4F0E4FF1210F2600D1210F2FEEF2F01
:1005DF00244AF8A6068007EF2F244AF87630EF2F2B
:1005EF00244BF8E4F60FBF0CDC90E0A7E030E20AF2
:1005FF00D20890E0C81210E28008C20890E078128A
:10060F0010E290E06DE0F54090E06CE0F54190E095
:10061F006EE0F54290E070E0F54390E080E0F53F4A
:10062F00E4F53E90E06AE030E21B90E0B0E0541455
:10063F006013E030E405753E44800A90E0B0E0308E
:10064F00E203753E42E53E6016FF120003E4F51E1D
:10065F007C0E7D267B80FAFF7EE4121AE8802EE561
:10066F003F602A30E10E90E601E04440F07F0C122B
:10067F000003800AE53F30E0057F0B1200037C0E7C
:10068F007D267B807A007F007EE4121AE8C3E50F97
:10069F009401F50FE50E9400F50EE50D9400F50DA0
:0606AF00E50C9400F50CBF
:0106B5002222
:10000300AE077DA07C007F2C121E0CEEFD7F241218
:100013001E0C7D037F22121E0C7DEF7F2E021E0C11
:101C600090E6A0E04401F02274002DF58274E03C7F
:101C700090E6B3F074002DF58274E03C22E4F0901D
:101C8000E68AF0A37402F022F090E68AE4F0A3045E
:021C9000F02240
:1011C600E4F53FC202C200C2011200261218007ED8
:1011D600E07F007C117D007A007BC6121AE8AF1B07
:1011E6007400244BF58274E03400F583EFF074004C
:1011F600242BF58274E03400F583EFF0E4FF744AA3
:101206002FF8E6FEEF2472FDE43400FC121C74F5A0
:1012160083EEF00FBF18E7D2E843D82090E668E0E7
:101226004408F090E65CE04439F0D2AF90E680E006
:1012360020E105D203121D23E58030E60990E68001
:10124600E054F7F08003121E74538EF890E6A0E087
:101256004480F0E58020E603121E741218B180F374
:101E740090E680E04408F0E58030E6FB90E680E000
:041E840054F7F022FD
:1002F10090E6B9E012163703AD0004160104750348
:1003010003170603A308039B0903890A03930B043C
:10031100C7FF000004E690E6BBE024FE602C1460F9
:100321004124FD601614602E240670577C007D0068
:10033100121C68E58290E6B4F081E97C007D12121E
:100341001C68E58290E6B4F081E9E51590E6B3F02A
:10035100E516A3F081E9E51790E6B3F0E518A3F0FF
:1003610081E990E6BAE0FF121D7CAA06A9077B018C
:10037100EA49600AEE90E6B3F0EFA3F081E9121CBE
:100381006081E9121C6081E990E740E51C121C883C
:1003910081E990E6BAE0F51C81E990E6BAE0F51D45
:1003A10081E990E740E51D121C8881E990E6B8E0FB
:1003B100247F601E14602624027055A200E433FFDE
:1003C10025E0FFA201E4334F90E740F0A3121C7D2A
:1003D10081E990E740E4F0A3121C7E81E990E6BC3C
:1003E100E0B4020C90E6A3E0540190E740F08018DD
:1003F10090E6BCE0B4880C90E6A6E0540190E7409A
:10040100F08005121C6081E990E741121C7D81E9B1
:10041100121C6081E990E6B8E024FE6016240260B7
:100421000281E990E6BAE0B40104C20081E9121C3C
:100431006081E990E6BAE0703690E6BCE0B4021360
:10044100121E4490E6837402F07422F090E6A3E455
:10045100F081E990E6BCE0B4881090E6837418F06E
:100461007438F090E6A6E4F081E9121C6081E9128B
:100471001C6081E990E6B8E024FE601C24027068EB
:1004810090E6BAE0B40104D200805D90E6BAE0647F
:10049100026055121C60805090E6BAE0702390E62D
:1004A100BCE0B4020890E6A37401F0803B90E6BC86
:1004B100E0B4880890E6A67401F0802C121C6080DC
:1004C10027121C60802290E6B8E0B4211390E6BCAC
:1004D100E0700D5391EF75A101C2AF121EC38008E8
:0F04E100121C608003121C6090E6A0E04480F0C3
:0104F00022E9
:0300330002003692
:0400360053D8EF327A
:101D7C00EF14600F146011146013240370147E119F
:101D8C007F5C227E117F60227E117F70227E117F0C
:071D9C008A227E007F002275
:100DA6000A010A3F000000000202040100000000E0
:100DB600FEFFFFFF000000000000007600000000BC
:100DC600080A3F00000000000006010000000000C5
:100DD600FDFFFF00000000000000360000000000DC
:100DE6000801051C0301020101000203020226009C
:100DF600FFFBFAFAF8F9C3FF0909A8090000363F14
:100E06000801130501020101010001000026260068
:100E1600FFFBF8FBFBFBFFFF09090909002D363F25
:100E26000411013F00000000020302070000000059
:100E3600FEFEFFFF0000000000000036000000007C
:100E460004113F0000000000000107000000000040
:100E5600FDFDFF0000000000000000000000000093
:100E66000801061C01010207010002030202260016
:100E7600FFFBFAFAF8FBFBFF09091209002D363FC2
:100E860008011301010201070100010000262600E6
:100E9600FFFBF8FBFBFBFFFF0909091B002D363F93
:0E1EAC0053807F7F647E00121A6E4380802276
:101D520090E6C77436F0A3E4F0A37402F090E6CBE9
:101D620074D0F0A37403F090E60C7401F090E61BBB
:0A1D7200740DF090E60174C6F02233
:101AAF0090E6C77470F0A3E4F0A37408F090E6CB4F
:101ABF007411F0A37403F0E53EB44206A37404F06E
:101ACF00800690E6CD7402F090E60C7401F090E67B
:091ADF00D2F090E6017486F022B9
:101E0C00E5BB30E7FB90E6C0E4F0EF44C0F580ECB6
:101E1C0090E6F0F0EDA3F0E5BB30E7FB7580FE2219
:101B5600752E00752FC890E6F5E4F0E5BB30E7FB7F
:101B660090E6C0E4F0EF44C0F580ECC313FAED1341
:101B7600FBEA90E6D0F0AF03EFA3F090E6D4E4F0F2
:051B8600E5BB30E7FBA8
:011B8B002237
:061ED0007F2E121DC82246
:101DC800E5BB30E7FB90E6C07410F0EF44C0F58047
:101DD80090E6F1E0FFE5BB30E7FB90E6F2E0FF7547
:021DE80080FE7B
:011DEA0022D6
:101BF800E5BB30E7FB90E6C07410F0EF44C0F58019
:101C080090E6F1E0FD7C00E5BB30E7FB90E6F2E012
:101C1800FE90E6F0E07A002400FDEA3EFC7580FEC6
:031C2800FEAF0507
:011C2B002296
:101DA300E5BB30E7FB90E6C07401F0EF44C0F5807B
:101DB300ECC313FAED13FBEA90E6D0F0AF03EFA305
:051DC300F075BB0722D2
:1019EA008F348E338D328C31E5BB30E7FB90E6C005
:1019FA007403F07580F090E6CEE4F0A3E532F0A32C
:101A0A00E533F0E534A3F090E6C67482F075BB07BF
:101A1A00E58030E0FBE5BB20E70312002690E6C62E
:031A2A00E4F022C3
:081266008F2F8E2E8D2D8C2C94
:10126E00E4F530F533F531F532E533C394045032FD
:10127E00AE31AF32E4FCFDAB0BAA0AA909A80812E5
:10128E001600401E90E6A3E020E2F990E691E4F00D
:02129E00F53425
:1012A0000533E51A2532F532E5193531F53180C7B8
:1012B000121AAF90E6187411F0E5BB30E7FB90E628
:1012C000C07408F07580F090E6CEE4F0A3E52DF050
:1012D000A3E52EF0E52FA3F090E6C67483F090E628
:1012E000D4E4F0AF808F30EF30E0F8E5BB20E703C7
:0D12F00012002690E6C6E4F090E61804F027
:0312FD00E4F534E1
:0113000022CA
:0C00260090E6C6E4F090E6F574FFF022CE
:101B8C0070000B00000000000000000008030000C3
:101B9C0000007000050000000000000000002400A0
:101BAC0000000000700000000000000000000000B9
:061BBC0000000000000023
:10101800E52690E69CF0EFA3F0E4FCFDAA06AB07FA
:10102800C3E50B9BF50BE50A9AF50AE5099400F56B
:1010380009E5089400F5082290E6917480F0AF0B5A
:10104800AE0AAD09AC08EC4D4E4F222528F582E4D6
:1010580034FCF5832290E6917480F02275441B7568
:1010680045B022AF0BAE0AAD09AC08E47B12FAF921
:10107800F8C302160090F011E0F546A3E0F547A387
:10108800E0F548A3E0F54922E4FCFDAB0BAA0AA968
:1010980009A80822FDAC06E50B24FFE50A3401C3C4
:1010A800132D22F548ED3547F547EC3546F546E56D
:1010B8003E2274FE2509F50974FF3508F50822E576
:1010C8002975F004A4FFAEF0227DE07C007F2C227D
:0A10D800E4F50BF50AF509F508220E
:1000560090F00FE0F52512163701CB0001E40300FE
:10006600811201CB1E01222301222500CE28010880
:100076002B00EB2F021A5A000002DF121064E47FF5
:100086002CFEFDFC121093C31216005006AE0AAFEA
:100096000B80047E007F2C8E268F2712105D121097
:1000A600047C1F7DB0AB27AA267F007EFC121AE8CF
:1000B600E52745266010E52690E69CF0E527A3F0A7
:1000C600AE26FF121021C32212106412003E74B035
:1000D600B5450A741BB54405C20402080012105D3A
:1000E600121E88D32212106412003E74B0B5450A5F
:1000F600741BB54405D20402080012105D121E8856
:10010600D32212106412003E12105D74B0B545077A
:0C011600741BB54402C322121E88D322C1
:10012200E4F52875290212105D12106412003E12C5
:10013200100474B065457004741B6544600221C3E9
:10014200E525B4231390FC00E4F0A3F0A3F0A3741C
:1001520008F0752804752903E4121053E50CF074B5
:1001620001121053E50DF07402121053E50EF074F3
:1001720003121053E50FF07404121053E4F07405E7
:10018200121053E4F07407121053E4F074061210C4
:10019200537402F01210C7121090D31216004008C6
:1001A2001210C7E4FCFD8008AF0BAE0AAD09AC0823
:1001B2008E268F27E52745266003121018C203807A
:0901C20005121E88D203A20322DB
:1001CB001210406003121E8812003E74B0B5450732
:1001DB00741BB54402C322D32212105D121004AC5F
:1001EB0044AD457B127A007F007EFC121AE8121098
:1001FB006B50067E007F128004AE0AAF0B8E268FEB
:0F020B0027E52745266003121018121064C3223E
:10021A0090F011E0543FF52812105D121004E52801
:10022A006405601BE528643F6015E5286401600FDA
:10023A00E52864086009E528641B60030202E69069
:10024A00FC00E4F07B11FAFD7CFC7F017EFC121AB3
:10025A00E890FC017412F090FC08E528F0A3740AF7
:10026A00F0E52864056006E528643F703C90FC08C8
:10027A007405F090E680E030E70A90FC0A74FFF01B
:10028A00A3F0800A90FC0A742EF0A374E0F090FCAC
:10029A000CE542F0A3E543F0A37402F0A3E4F0A353
:1002AA00E540F0A3E541F0800BE528B41B0690FC7D
:1002BA000B7401F012106B50067E007F128004AEA0
:1002CA000AAF0B8E268F27E52745266003121018E2
:0502DA00121064C322B4
:0602DF0012105D1202E6A0
:0C02E5002275441B75459E121E88D32212
:101CC30090F00FE0FF24D6701D12106412003E74D2
:101CD300B0B54508741BB544030209BA121040603D
:0F1CE30003121958D3221210406003121958D35C
:011CF20022CF
:0810040090E6A6E020E3F922CA
:100800001210D1121E0C121E2C12107D12105D122D
:100810001046700221AA1219A4E50954FE45086089
:10082000167D017C007F24121E0CE41D121E0C7527
:100830002B01752C0080277E00E50954017807C341
:1008400033CE33CED8F912109CF52CE43CF52BE4D2
:10085000FDFC7F24121E0CAD2CAC2B121E0CE4FCF4
:10086000FDE549252CF549E548352B1210AB600D07
:1008700020040AE50A5401450B7002215330081187
:100880003004077D421209AC80167D241209AC8029
:100890000F3004077D401209B380057D201209B393
:1008A000300408121E2C4002010F22E52C152CAE3C
:1008B0002B7002152B4E7002010F121ED08F2AE5ED
:1008C0002A5488FFBF08F3E52A30E0247F22121D56
:1008D000C8E52A30E315E4FDFC7F20121DC80DBDDC
:1008E00000010CE4B505F2ECB401EE121E88D3222F
:1008F000E51A644045197005752E088003752E01B0
:10090000E4F52DE52DC3952E50A1121046609C12E2
:100910001004AE19AF1A1210901216004006AE194C
:10092000AF1A8004AE0AAF0B8E2F8F30E530240152
:10093000FDE4352FFC7F20121DA3E5BB30E7FBE56E
:100940002F90E69CF0E530A3F0AE2FFF12102105AA
:030950002D80B047
:10095300121D5230080B7D257C007F2E121E0C8049
:10096300097DC87C007F2E121E0CAE2BAF2CE4FC3D
:10097300FD78081216241219EA121ED08F2AE52ACE
:1009830030E0117F22121DC8EF30E70675441B7556
:10099300458CD322E4B52C0AE52BB401051210BA19
:0809A300010F1210D8010FC36F
:0F09AB00227C007F2E021E0C7C007F2E021E0C71
:1009BA001210D1121E0C121E2C12107D1210407031
:1009CA0002C322121046700261611219A4E5095489
:1009DA00FE450860167D017C007F24121E0CE41D72
:1009EA00121E0C75280175290080277E00E509541E
:1009FA00017807C333CE33CED8F912109CF529E417
:100A0A003CF528E4FDFC7F24121E0CAD29AC28120B
:100A1A001E0CE4FCFDE5492529F549E5483528126F
:100A2A0010AB6079E50A5401450B70713008097DF5
:100A3A00357F2E121E0C80057DCA120B6AE4B52979
:100A4A0012E528B4010D7F007E007D017C001212A0
:100A5A00668019E50B2401FFE4350AFEE43509FD39
:100A6A00E43508FC7801121611121266121ED08F94
:100A7A0027E52730E0147F22121DC88F27E527308B
:100A8A00E70675441B75458CD322E4B5290AE52887
:100A9A00B401051210BA21CD1210D821CD300807A1
:100AAA007D34120B6A80097D307C007F2E121E0C69
:0F0ABA00E5291529AE28700215284E700221CDAE
:100AC900121ED08F27E5275488FFBF08F3E51A6463
:100AD9004045197005752B088003752B01E4F52A2B
:100AE900E52AC3952B506190E6A3E020E2F990E650
:100AF90090E0FEA3E0FDEEF525EDF526C3951AE598
:100B09002595195031E4F0E5262401FDE43525FC4D
:100B19007F20121B56AF2A7E00AC19AD1A1215EEB2
:100B2900E5262FFFE5253EFEE4FCFDAA06C3E50BFD
:100B39009F12102C802290E691E4F0AD1AAC197F37
:100B490020121B56052A8098C3E50B9400F50BE586
:060B59000A9402121031A3
:0A0B5F0041BAE52730E002D322C3BB
:080B6900227C007F2E021E0C0D
:02003E00D322CB
:1019A4001210D1121E0C300815E546FD7F26121EBA
:1019B4000CE4FD7F28121E0CE47F2A121E0CE5495C
:1019C400FD7C007F26121E0CE548FD7F28121E0CAC
:1019D400E547FD7F2A121E0C20080AE54644E0FD77
:0619E4007F2C121E0C22F4
:101C92000000000100000000437970726573732038
:101CA2004154415049205265662044657369676E0C
:101CB20030312E3030392F32342F39385553424398
:011CC2000021
:1015030090E6ABE0FEA3E07C002400FFEC3EFE90FF
:10151300E690E0FCA3E02FF52FEC3EF52E22AE2E55
:10152300AF2FE4FCFDAB0BAA0AA909A808D3021646
:1015330000AF82F5158F16F583A37402F0740022B1
:10154300AF0BAE0AAD09AC08EC4D4E4F22AF82F59E
:10155300178F18F583A37407F022E51990E626F098
:10156300E51AA3F02290E6917480F022C3E5299551
:061573002BE528952A2259
:0918000090E600E054E74410F00A
:03180900E4F522E1
:05180C00A3E04440F0E0
:03181100E4F522D9
:10181400F51412148A7C0D7DA67B407A007F007E2D
:10182400E4121AE87E1F7FB07C1C7D927B2C7A0028
:10183400121AE8121301121B1FEF6003121B1F126E
:1018440004F1121B1FEF6003121B1F751B063009E6
:0518540003121CF32249
:1018B100E4F522F52390E6A3E020E24A901CBEE085
:1018C100FCA3E0FDA3E0FEA3E0FF90F000E0F8A39D
:1018D100E0F9A3E0FAA3E0FBC3121600600790E66B
:1018E100A37401F02290F00EE0240FFFE433FE9088
:1018F100E690E0FCA3E0C39FEC9E500790E6A37442
:0619010001F022120EA607
:0119070022BD
:10148A0090E6707401F075B2BE7580FEC28890E66F
:10149A0001748EF090E6007414F090E609E4F0907E
:1014AA00E602F0A3F090E6C3F090E6C27477F090FB
:1014BA00E6C1E4F090E6C074B1F090E61274A0F0D0
:1014CA0090E6187405F090E630E4F0A3F090E6D3C5
:1014DA00F090E61574E0F090E61B7405F090E614BF
:1014EA007422F090E613F090E611F090E610F09076
:0914FA00E60BE04402F0021E447E
:10195800E5AA30E007E4F52EF52F800312150312EF
:101968001521403790E6A3E04401F07F647E001221
:101978001A6E90E6A3E030E006752E04752FD2E5C6
:10198800AA30E007E4F52EF52F800312150312158F
:0B199800214008121E4490E6A3E4F07A
:0119A3002221
:100EA60090F004E0F510A3E0F511A3E0F512A3E03D
:100EB600F513A3E0F50BA3E0F50AA3E0F509A3E01B
:100EC600F50890F00FE0B4FB1890F00CE020E71165
:100ED600121568AF0BAE0A12165DE4FF1216C0E1DA
:100EE6007190F00FE064FA704690F00CE030E73F46
:100EF60090118AE493FF25E0F524D3950BE4950A37
:100F06004004AF248002AF0B8F241215687C117D3C
:100F16008CEFFB7A007F007EFC121AE81210049018
:0D0F2600E69CE4F0A3E524F0E4FF1216C001
:100F3300803C90F00CE020E70512154370197514FE
:100F4300033009081215791216C08022120056E4E4
:100F530033FF1216C08017751402300908121720C8
:100F63001216C08009121CC3E433FF1216C0751495
:020F7300012259
:0216C0008F2574
:1016C200C20320035890E6A6E020E3F6E020E0F211
:1016D20090E6A3E020E203121E4490FC007455F051
:1016E200A37453F0A37442F0A37453F0A3E510F073
:1016F200A3E511F0A3E512F0A3E513F0A3E50BF0C7
:10170200A3E50AF0A3E509F0A3E508F0A3E525F0B7
:0D17120090E69CE4F0A3740DF0D20380A5D6
:01171F0022A7
:101E8800121543600D90E6A6E030E2F990E6A674DC
:031E980001F02234
:0A0C98008F258C268D278A288B29D2
:100CA200E4F52AF52B752F70F530F52EE52E20E3AD
:100CB20019E5301530AE2F7002152FD39400EE9443
:100CC200004007121ED08F2E80E2E530452F7005BE
:100CD200AE28AF2922E530B4FF0AE52FB4FF057E26
:100CE200007F0022300511752C02752D0075280237
:100CF200752900E4F52AF52B300920121E5C8E2A94
:100D02008F2B8E2C8F2D12156F5006AE28AF298097
:100D120004AE2AAF2B8E288F29802C752A02752BC0
:100D220000752C02752D0012156F5006AE28AF29E2
:100D32008004AE2AAF2B8E288F29C3E52B9529F587
:100D42002BE52A9528F52AE4F531F532C3E53295EB
:100D520029E53195285028AF25121BF88527828571
:100D62002683EEF0A3EFF074022527F527E435265B
:100D7200F52674022532F532E43531F53180CD2085
:100D8200091DE52B452A60177D027C00AF25121D47
:100D9200A374FE252BF52B74FF352AF52A80E3AECA
:030DA2002CAF2D46
:010DA500222B
:101E2C00121ED08F31E53120E7F6121ED08F31E52E
:071E3C003130E002D322C3A4
:011E4300227C
:101AE8008E2A8F2B8C2C8D2DEB1BAE0270011A4E7B
:101AF8006024052DE52DAE2C7002052C14F5828E80
:101B080083E0FF052BE52BAC2A7002052A14F58229
:071B18008C83EFF080D22264
:1007EA007F007E70308909EF1F70011EEF4E70F492
:0407FA00121ED0C338
:0107FE0022D8
:101A2D00C0E0C0F0C083C082C0D075D000C000C07F
:101A3D0001C002C003C004C005C006C0071202F1F8
:101A4D005391EF75A101D007D006D005D004D00376
:101A5D00D002D001D000D0D0D082D083D0F0D0E051
:011A6D003246
:10138500C0E0C0F0C083C082C0D075D000C000C02E
:1013950001C002C003C004C005C006C00774002414
:1013A5003CF58274E03400121534241CF58274E097
:1013B5003400121550751900751A4090E636748080
:1013C500F0A37460F012155D90E6047408F0121E27
:1013D5004490E6A3E4F090E6A6F05391EF75A110D2
:1013E500E5146005C2AF121EC3D007D006D005D0E4
:1013F50004D003D002D001D000D0D0D082D083D089
:04140500F0D0E03211
:091EBA00D2025391EF75A1083228
:10190800C0E0C083C082C0D075D000C00790E68018
:10191800E030E7287400241CF58274E034001215C6
:1019280034243CF58274E0340012155075190275A0
:101938001A0090E6367489F0A37490F012155D537E
:1019480091EF75A120D007D0D0D082D083D0E032DB
:101E4400E58E54F84405F58E90E6047402F01215FC
:081E540068F0F0F0538EF82253
:1017DC0000000000000000000000000003000000FA
:1017EC001200000000000000120000002C0000009D
:0417FC0000000000E9
:10185900AF0BAE0AAD09AC08EC4D4E4F22E4FCFDCE
:10186900AA06AB07C3E50B9BF50BE50A9AF50AE552
:10187900099400F509E5089400F50822E50B24010F
:10188900FFE4350AFEE43509FDE43508FC78010278
:101899001611E4FCFDAB0BAA0AA909A80822E51A4E
:0818A90024FFFFE51934FF22C2
:10157900E4F525C206E53E601290F00FE0245860BC
:101589000424807004D2078002C2077F0F7EF01204
:101599000F75E433F52590E6917480F0E525600632
:1015A900121E887F0122E50B450A701AE5094508D4
:1015B9007014121ED0EF20E7F9121ED0EF30E303AA
:1015C9007F02227F0022300709121409E433F5252E
:1015D9008005120B718F251218596006121E88AFEB
:0415E9002522AF25E3
:0115ED0022DB
:10172000752501C207E53E601290F00FE024566077
:101730000424807004D2078002C2077F0F7EF0125B
:101740000F75E433F52590E6917480F0E52560147B
:10175000E4FFFEFDFC12189ED3121600400312197E
:10176000587F01221218597003AF25223007071243
:0D1770001BC28F2580051206B68F25AF2500
:01177D002249
:101B1F00C204200906A204E433FF22C2077E177F06
:101B2F00DC120F75920430041D7E177FE8120F75BB
:101B3F0092047CE07D00C2057B127A007F20120C9C
:061B4F009890E00CE0FF9D
:011B5500226D
:101CF300C2077E177FF4120F759203300303021E8F
:101D0300881207EA92037CE07D00C2057B2C7A00EF
:0F1D13007F20120C9890E000E0B40503751B02CE
:011D2200229E
:101E5C007F2A121DC8EF7D00FC7F28121DC8ED2FB4
:071E6C00FDE43CFCFEAF05A4
:011E7300224C
:1006B600E4F526F527F528F529F52AF52BF52CC2BC
:1006C60003C204F52D121ED0EF20E7F9121ED08FBB
:1006D60028E52820E302E1CCE52830E002E1CC3031
:1006E6000302E1CC1218597002E1CC90E6A3E05463
:1006F6000570E51218A7FE90E690E05EFEA3E05FA7
:100706004E6002D20490E691E4F0E5274526700794
:10071600121E5C8E268F27E4F52BF52CD3E51A9551
:100726002CE519952B40B12003AE12185960A9E5A6
:100736001A952CFFE519952BFEC3EF9527EE952606
:1007460050028004AE26AF278E298F2A12189BC32B
:100756001216005006AE0AAF0B8004AE29AF2A8EE1
:10076600298F2AE52A2401FDE43529FC7F20121B66
:1007760056AE29AF2A121866C3E527952AF527E54E
:10078600269529F526E52A252CF52CE529352BF580
:100796002B121ED0EF20E7F9121ED08F28E5283045
:1007A600E007752D01D203E122E52820E307D203F5
:1007B600E4F52DE122E52745266002E122121E5CC2
:1007C6008E268F27E122121ED0EF20E306E527456D
:1007D600266003752D0212185960062004031219AB
:0307E60058AF2DDC
:0107E90022ED
:040F75008E268F270E
:100F7900121C2C121ED0EF20E7F97DA07C007F2ED9
:100F8900121E0C7F2E121DC8AB07EB20E7F530E0CF
:030F990002D3225E
:100F9C00E4F528E5282401FFE433FEE5272FF5824C
:100FAC00E5263EF583E0752900F52AE5272528F589
:100FBC0082E43526F583E0FDE52AF529EDF52AAC2A
:100FCC00297F20121E0C05280528E528C3940C4007
:010FDC00C252
:100FDD00300702C3227B80EB30E7097F1C121DC84E
:0E0FED00AB0780F3121ED0EF30E002D322C318
:010FFB0022D3
:101C2C007DA07C007F2C121E0C121ED0EF20E7F939
:101C3C0030070B7D017C007F22121E0C8008E4FD16
:101C4C00FC7F22121E0C7DFF7C007F28121E0C7F55
:041C5C002A021E0C2E
:100B7100E4F527F528F529F52AF52BF52CC203D242
:100B8100047F2E121DC88F26E52620E7F420E303FB
:100B91007F0022E52630E002818230030281821249
:100BA100185970028182E52845277007121E5C8E54
:100BB100278F28121004C3E52C951AE52B951940AF
:100BC100028166300302816612185970028166C380
:100BD100E51A952CFFE519952BFEC3EF9528EE95A7
:100BE1002750028004AE27AF288E298F2A12189B26
:100BF100C31216005006AE0AAF0B8004AE29AF2A0D
:100C01008E298F2AE52A2401FDE43529FC7F201253
:100C11001DA3C3E528952AF528E5279529F527AED3
:100C210029AF2A121866E52A252CF52CE529352B42
:100C3100F52B121ED0EF20E7F9121ED08F26E526E4
:100C410030E006D203D20461B7E52620E306D203E1
:100C5100C20461B7E5284527600261B7121E5C8EA8
:100C6100278F2861B7E52B90E69CF0E52CA3F0C314
:100C7100951AE52B95195002D206E4F52BF52C6156
:100C810094121ED0EF20E306E528452760037F027A
:060C910022A204E433FF7F
:010C9700223A
:10140900121D521218851219EA90E6CEE0FEA3E0E9
:101419004E7010A3E0FEA3E04E7008F50BF50AF537
:1014290009F50890E61B7405F0121ED0AB071218D7
:10143900A7550AFEE50B5F4E6002D206EB30E0339A
:101449007F22121DC8EF54F0FFBF4025740A251EE4
:10145900F51EC39414401AE53EB4440A753E42AFE2
:101469003E1200038008E4F53E7F0C120003E4F508
:101479001ED322EB30E302D322E51E6002151EC300
:011489002240
:101BC20012188512126690E6CEE0FEA3E04E701067
:101BD200A3E0FEA3E04E7008F50BF50AF509F5083F
:101BE200121ED0AE07EE30E0037F0122EE30E30397
:051BF2007F02227F00CC
:011BF70022CB
:101D230030030990E680E0440AF0800790E680E003
:101D33004408F07FDC7E05121A6E90E65D74FFF0B6
:0F1D430090E65FF05391EF90E680E054F7F022C6
:101A6E008E308F3190E600E05418700DE530C313C0
:101A7E00F530E53113F531801590E600E05418FF8E
:101A8E00BF100BE53125E0F531E53033F530E531AA
:101A9E001531AE30700215304E6005121E9B80EE71
:011AAE002215
:101E9B007400F58690FDA57C05A3E582458370F95A
:011EAB002214
:04165D008E258F2621
:10166100E4F529F52AC3E52A9526E5299525504E65
:1016710090E6A3E020E2F9E4F527F528C3E52895F3
:101681001AE52795195023E52A2528FFE52935274D
:10169100FEE42528FDE52734F0FC12177E741025A1
:1016A10028F528E43527F52780D290E6917480F05B
:0E16B100E51A252AF52AE5193529F52980A71D
:0116BF002208
:02177E00AA06B9
:10178000EAF52CEFF52D752B02E52B24FEFFE43452
:10179000FFFEED2FF582EC3EF583E0FF742C252B48
:1017A000F8A607052BE52BB412DF121DEB1200463D
:1017B000E4F52B90E678E030E0F9742C252BF8E680
:1017C00090E679F0052BE52BB412E890E678E0304E
:0C17D000E0F990E678E04440F0021DF3E0
:0C00460090E678E04480F0A374A2F02261
:101DEB0090E678E020E6F922121DEB12004690E611
:101DFB0078E030E0F9E04440F0121DEBE030E1EB2D
:011E0B0022B4
:1015EE00EF8DF0A4A8F0CF8CF0A428CE8DF0A42E11
:0215FE00FE22CB
:10160000EB9FF5F0EA9E42F0E99D42F0E89C45F040
:0116100022B7
:10161100E8600FECC313FCED13FDEE13FEEF13FFB7
:03162100D8F122DB
:10162400E8600FEFC333FFEE33FEED33FDEC33FC24
:03163400D8F122C8
:10163700D083D082F8E4937012740193700DA3A342
:1016470093F8740193F5828883E473740293686056
:06165700EFA3A3A380DF56
:00000001FF
